:100000000C945C000C9479000C9479000C947900A9
:100010000C9479000C9479000C9479000C9479007C
:100020000C9479000C9479000C9479000C9479006C
:100030000C9479000C9479000C9479000C9479005C
:100040000C942E020C9479000C9479000C94790095
:100050000C9479000C9479000C9479000C9479003C
:100060000C9479000C947900000000080002010053
:100070000003040700000000000000000102040863
:100080001020408001020408102001020408102002
:10009000040404040404040402020202020203032E
:1000A0000303030300000000250028002B000000CC
:1000B0000000240027002A0011241FBECFEFD8E043
:1000C000DEBFCDBF11E0A0E0B1E0E0E4F6E002C0A9
:1000D00005900D92A630B107D9F721E0A6E0B1E076
:1000E00001C01D92A131B207E1F70E94D8010C9422
:1000F0001E030C94000061E089E00C946801AF924B
:10010000BF92CF92DF92EF92FF920F931F938EE0F8
:100110000E94C3009093070180930601BC018827C9
:1001200077FD8095982F1F921F921F922FEF2F938C
:10013000A12CB12C650114E8E12E13E0F12E00E0B2
:1001400010E020E030E0A9010E94E7010F900F903D
:100150000F900F906F3F710519F014F06FEF70E082
:1001600077FF02C060E070E07093070160930601C2
:1001700089E01F910F91FF90EF90DF90CF90BF909B
:10018000AF900C94E0008E3008F08E508770209174
:10019000040190E4299F90011124822B80937C001C
:1001A00080917A00806480937A0080917A0086FD45
:1001B000FCCF809178002091790090E0922B0895F7
:1001C0001F93CF93DF93182FEB0161E00E9468012A
:1001D000209711F460E004C0CF3FD10539F461E00D
:1001E000812FDF91CF911F910C94A101E12FF0E0BD
:1001F000E859FF4FE491E330F9F048F4E130B9F009
:10020000E230A1F584B5806284BDC8BD34C0E7305A
:10021000E9F0E83019F1E43049F58091800080621E
:1002200080938000D0938B00C0938A0024C084B553
:10023000806884BDC7BD1FC08091800080688093A6
:100240008000D0938900C093880015C08091B000D1
:1002500080688093B000C093B3000DC08091B0005F
:1002600080628093B000C093B40005C0C038D1054F
:100270000CF0B5CFAFCFDF91CF911F9108958330B0
:1002800081F028F4813099F08230A1F00895873010
:10029000A9F08830B9F08430D1F4809180008F7D4E
:1002A00003C0809180008F7780938000089584B58B
:1002B0008F7702C084B58F7D84BD08958091B00092
:1002C0008F7703C08091B0008F7D8093B000089538
:1002D000CF93DF9390E0FC01E458FF4F2491FC01A1
:1002E000E057FF4F8491882349F190E0880F991FD0
:1002F000FC01E255FF4FA591B4918C559F4FFC0135
:10030000C591D4919FB7611108C0F8948C91209544
:1003100082238C93888182230AC0623051F4F8943E
:100320008C91322F309583238C938881822B888304
:1003300004C0F8948C91822B8C939FBFDF91CF9156
:1003400008950F931F93CF93DF931F92CDB7DEB71E
:10035000282F30E0F901E859FF4F8491F901E45862
:10036000FF4F1491F901E057FF4F04910023C9F0AA
:10037000882321F069830E943F016981E02FF0E02A
:10038000EE0FFF1FEC55FF4FA591B4919FB7F89466
:100390008C91611103C01095812301C0812B8C9336
:1003A0009FBF0F90DF91CF911F910F9108950895F6
:1003B0000E9478020E94D7010E947B00C0E0D0E03A
:1003C0000E947F002097E1F30E940000F9CF4F9236
:1003D0005F926F927F92AF92BF92CF92DF92EF9235
:1003E000FF920F931F93CF93DF93CDB7DEB7290111
:1003F0003A01621B730B840B950B29893A894B894F
:100400005C892A193B094C095D09298B3A8B4B8B76
:100410005C8B9B01AC0169897A898B899C890E94DC
:10042000B302E418F50806091709A80197010E940C
:10043000C3022A0D3B1D4C1D5D1DCA01B901DF9190
:10044000CF911F910F91FF90EF90DF90CF90BF90D1
:10045000AF907F906F905F904F9008951F920F9292
:100460000FB60F9211242F933F938F939F93AF93C7
:10047000BF938091090190910A01A0910B01B09165
:100480000C013091080123E0230F2D3720F4019651
:10049000A11DB11D05C026E8230F0296A11DB11DA7
:1004A000209308018093090190930A01A0930B0106
:1004B000B0930C0180910D0190910E01A0910F015C
:1004C000B09110010196A11DB11D80930D01909373
:1004D0000E01A0930F01B0931001BF91AF919F91B6
:1004E0008F913F912F910F900FBE0F901F901895F5
:1004F000789484B5826084BD84B5816084BD85B5FF
:10050000826085BD85B5816085BDEEE6F0E08081C5
:1005100081608083E1E8F0E01082808182608083E6
:10052000808181608083E0E8F0E080818160808369
:10053000E1EBF0E0808184608083E0EBF0E080819B
:1005400081608083EAE7F0E080818460808380813D
:1005500082608083808181608083808180688083E5
:100560001092C1000895DB018F939F930E94E202D5
:10057000BF91AF91A29F800D911DA39F900DB29F3F
:10058000900D11240895052E97FB1EF400940E94EF
:10059000DA0257FD07D00E94ED0207FC03D04EF4AB
:1005A0000C94DA0250954095309521953F4F4F4F6E
:1005B0005F4F089590958095709561957F4F8F4F0F
:1005C0009F4F08950E940F03A59F900DB49F900D1B
:1005D000A49F800D911D11240895A1E21A2EAA1B3B
:1005E000BB1BFD010DC0AA1FBB1FEE1FFF1FA217E3
:1005F000B307E407F50720F0A21BB30BE40BF50BE0
:10060000661F771F881F991F1A9469F76095709568
:10061000809590959B01AC01BD01CF010895A29FEB
:10062000B001B39FC001A39F700D811D1124911DC6
:10063000B29F700D811D1124911D0895F894FFCF74
:06064000010000000100B2
:00000001FF
