:100000000C945C000C9479000C9479000C947900A9
:100010000C9479000C9479000C9479000C9479007C
:100020000C9479000C9479000C9479000C9479006C
:100030000C9479000C9479000C9479000C9479005C
:100040000C94BA000C9479000C9479000C9479000B
:100050000C9479000C9479000C9479000C9479003C
:100060000C9479000C947900000000080002010053
:100070000003040700000000000000000102040863
:100080001020408001020408102001020408102002
:10009000040404040404040402020202020203032E
:1000A0000303030300000000250028002B000000CC
:1000B0000000240027002A0011241FBECFEFD8E043
:1000C000DEBFCDBF11E0A0E0B1E0E8E2F5E002C0A4
:1000D00005900D92A030B107D9F721E0A0E0B1E082
:1000E00001C01D92AB30B207E1F70E9482020C946E
:1000F00092020C94000061E089E00C9412021092CC
:1001000001011092000160910001709101016F3FA7
:1001100071059CF489E00E948A016AE070E080E049
:1001200090E00E94270180910001909101010196C9
:100130009093010180930001E6CF8FEF90E09093C0
:100140000101809300016091000170910101161678
:1001500017067CF489E00E948A016AE070E080E082
:1001600090E00E9427018091000190910101019788
:10017000E6CF08951F920F920FB60F9211242F937E
:100180003F938F939F93AF93BF938091030190917F
:100190000401A0910501B09106013091020123E014
:1001A000230F2D3720F40196A11DB11D05C026E8AF
:1001B000230F0296A11DB11D20930201809303011C
:1001C00090930401A0930501B0930601809107016B
:1001D00090910801A0910901B0910A010196A11D19
:1001E000B11D8093070190930801A0930901B0937A
:1001F0000A01BF91AF919F918F913F912F910F90E5
:100200000FBE0F901F9018953FB7F894809107018B
:1002100090910801A0910901B0910A0126B5A89B0F
:1002200005C02F3F19F00196A11DB11D3FBF6627E4
:10023000782F892F9A2F620F711D811D911D42E029
:10024000660F771F881F991F4A95D1F70895CF929F
:10025000DF92EF92FF92CF93DF936B017C010E94BC
:100260000401EB01C114D104E104F10489F00E94FE
:1002700091020E9404016C1B7D0B683E734090F359
:1002800081E0C81AD108E108F108C851DC4FEACF73
:10029000DF91CF91FF90EF90DF90CF900895789409
:1002A00084B5826084BD84B5816084BD85B582607B
:1002B00085BD85B5816085BDEEE6F0E08081816019
:1002C0008083E1E8F0E01082808182608083808119
:1002D00081608083E0E8F0E0808181608083E1EBF1
:1002E000F0E0808184608083E0EBF0E080818160D9
:1002F0008083EAE7F0E0808184608083808182608F
:100300008083808181608083808180688083109277
:10031000C10008951F93CF93DF93182FEB0161E085
:100320000E941202209711F460E004C0CF3FD10573
:1003300039F461E0812FDF91CF911F910C944B0232
:10034000E12FF0E0E859FF4FE491E330F9F048F491
:10035000E130B9F0E230A1F584B5806284BDC8BD5A
:1003600034C0E730E9F0E83019F1E43049F5809124
:100370008000806280938000D0938B00C0938A00BD
:1003800024C084B5806884BDC7BD1FC08091800033
:10039000806880938000D0938900C093880015C046
:1003A0008091B00080688093B000C093B3000DC00E
:1003B0008091B00080628093B000C093B40005C00B
:1003C000C038D1050CF0B5CFAFCFDF91CF911F91E1
:1003D0000895833081F028F4813099F08230A1F0C3
:1003E00008958730A9F08830B9F08430D1F4809135
:1003F00080008F7D03C0809180008F778093800084
:10040000089584B58F7702C084B58F7D84BD08952B
:100410008091B0008F7703C08091B0008F7D809372
:10042000B0000895CF93DF9390E0FC01E458FF4FB4
:100430002491FC01E057FF4F8491882349F190E01B
:10044000880F991FFC01E255FF4FA591B4918C557F
:100450009F4FFC01C591D4919FB7611108C0F894DA
:100460008C91209582238C93888182230AC06230EC
:1004700051F4F8948C91322F309583238C9388819A
:10048000822B888304C0F8948C91822B8C939FBF1D
:10049000DF91CF9108950F931F93CF93DF931F9216
:1004A000CDB7DEB7282F30E0F901E859FF4F84912E
:1004B000F901E458FF4F1491F901E057FF4F0491FF
:1004C0000023C9F0882321F069830E94E901698132
:1004D000E02FF0E0EE0FFF1FEC55FF4FA591B49118
:1004E0009FB7F8948C91611103C01095812301C0CE
:1004F000812B8C939FBF0F90DF91CF911F910F9114
:10050000089508950E944F010E9481020E947B007D
:10051000C0E0D0E00E947F002097E1F30E9400003D
:08052000F9CF0895F894FFCF14
:00000001FF
